:02000004C0D06A
:10000000B0B58CB062B600F050FD164C0120010274
:10001000204604F0CDFA6D46284604F06DFBA88515
:1000200085B26846002D0BD0002181850A9801F029
:1000300019FE102DEAD000F0B5FC00200CB0B0BDC8
:1000400001F010FE0A9000F09DFE00F0CBFC0020B5
:1000500003F066FA012003F063FA00F0F3FC00F00D
:1000600013F9C0466C18002010B5084C0849282226
:10007000204600F01FFD283406494022204600F0AB
:1000800019FD6820012103F0A1FB10BD8E1A00208C
:10009000001800202C18002080B50020014603F035
:1000A00095FB80BD80B5806803F084FB0149086042
:1000B00080BDC04628180020F0B589B015460C4612
:1000C000064601AF2021384604F072FA1248006853
:1000D000394603F01BFB11484022394603F0D0FAA1
:1000E0000F49384603F0E6FAB07800280BD00D49E6
:1000F00079440020024603F0F3FC206810210143FC
:10010000216009B0F0BD00F00FF8682028600920D8
:10011000000300F002FDC046281800202C18002023
:10012000001800203047000010B5064C0649282270
:10013000204600F0BFFC283404494022204600F04D
:10014000B9FC10BD8E1A0020001800202C180020C9
:10015000F0B591B00C46064601AF384604F0CCFA33
:100160000546B88580B2002818D0102855D001A8BF
:10017000002181850B9801F075FD0F2000032840B8
:1001800009210903884203D00321490388422AD167
:10019000FF20000229460140080A27E001A801F0DB
:1001A00061FD0B900DAD284603F02CFB2878E0286C
:1001B0005DD10DA8407802280BD0032836D10DADB3
:1001C000284601F097FB28463146224601F0C8FB3D
:1001D00015E00DAD2846FFF765FF2846314622465B
:1001E000FFF76AFF0BE06805400F68302168244A7A
:1001F00050542068101845702068801C206001F061
:1002000025FD01A9884202D10B9801F02BFD01A820
:10021000808D00282DD111B0F0BD01A8002181856D
:100220000B9801F01FFD102000F077FC012822D16F
:10023000144D7D44284601F02BFB00780126002850
:10024000314600D101460E4F3970284601F020FB9F
:100250004078BE700021F9703971002800D106463F
:100260007E70042020600920000300F056FC372037
:10027000400200F052FC6D20000200F04EFCC0462F
:100280008E1A0020CA50000090B000260F960E96DD
:100290000D96374F0CA806806D46284604F02CFAC0
:1002A000A88585B2002D15D0102D51D00446684682
:1002B00086850A9801F0D6FC0F2001032140092011
:1002C0000003814203D00322520391421AD10CA9A8
:1002D0000C801EE0684601F0C5FC0E990F910024C9
:1002E0000E940A900D980F99C0B289B200F058FE92
:1002F0000F900D940F98002832D00DA80EA9FFF78B
:1003000027FF17E019490C400D21C90261180CAAFA
:100310001180854203D010200D9981430D910C98D6
:10032000000A0E9978540C980E99791848700E9816
:10033000801C0E9001F08AFC6946884202D10A981E
:1003400001F090FC6846808D0028A3D000F0E5FB0A
:10035000684686850A9801F085FC102000F0DDFBD8
:10036000014800F0DAFBC04682690000FF07000088
:100370008E1A002080B500F079FD80BDF0B581B007
:10038000FB4D28780C2810DD0D2869D00E2800D1EF
:10039000B2E015280FD1F748807901280BD1A87950
:1003A000000708D4102000F0B8FB052800D1F8E0C1
:1003B0000C2800D166E2F04C002767600120207015
:1003C000204601F0E9FB042001F058FC6060692838
:1003D00000D041E100F0F0FC00F0F0FCBE25E74E5B
:1003E0007753042001F04AFC6060C0243159002991
:1003F00000D147E2002800D144E2972800D141E231
:10040000705BAA27C421715C80B2884200D339E2B4
:1004100001F000FC002800D034E201F081FBB8427A
:1004200004D101F0ADFBB84200D02BE23059715B32
:1004300049014018CC217158002902D08847002872
:1004400007D0012803D13059715B4901401800F0F1
:100450000DFD705B401C705331590029D2D111E25F
:10046000C54C0027676001202070204601F094FBF6
:10047000042001F003FC6060002800D102E269283A
:1004800000D17DE1972800D1FCE1C025BB4C60592B
:10049000002800D1EEE1BE26A05BAA27C421615C42
:1004A00080B2884200D3E5E101F0B4FB002800D01F
:1004B000E0E101F035FBB84204D101F061FBB84244
:1004C00000D0D7E16059A15B49014018CC216158A7
:1004D000002902D08847002807D0012803D160599D
:1004E000A15B4901401800F0C1FCA05B401CA05377
:1004F00061590029D2D1BDE19F4D00276F600120D5
:100500002870284601F048FB042001F0B7FB686022
:10051000692800D0D7E000F04FFC00F04FFCBE246B
:10052000964E3753042001F0A9FB6860C02571592D
:10053000002900D1A6E1002800D1A3E1972800D12D
:10054000A0E1305BAA27C421715C80B2884200D34D
:1005500098E101F05FFB002800D093E101F0E0FAA0
:10056000B84204D101F00CFBB84200D08AE17059C6
:10057000315B49014018CC217158002902D08847CD
:10058000002807D0012803D17059315B4901401878
:1005900000F06CFC305B401C305371590029D2D103
:1005A00070E1EA4C0027676001202070204601F0CE
:1005B000F3FA042001F062FB6060002800D161E1E1
:1005C000972800D15EE1692800D019E100F0F4FB22
:1005D00000F0F4FBBE25DE4E7753042001F04EFB05
:1005E0006060C0243159002900D14BE1002800D1BE
:1005F00048E1972800D145E1705BAA27C421715CCE
:1006000080B2884200D33DE101F004FB002800D015
:1006100038E101F085FAB84204D101F0B1FAB842EC
:1006200000D02FE13059715B49014018CC2171583D
:10063000002902D08847002807D0012803D130596B
:10064000715B4901401800F011FC705B401C705355
:1006500031590029D2D115E1C025BD4C605900287F
:1006600000D107E1BE26A05BAA27C421615C80B24D
:10067000884200D3FEE001F0CDFA002800D0F9E076
:1006800001F04EFAB84204D101F07AFAB84200D033
:10069000F0E06059A15B49014018CC216158002964
:1006A00002D08847002807D0012803D16059A15BF8
:1006B0004901401800F0DAFBA05B401CA0536159CF
:1006C0000029D2D1D6E00446D820A14E31580029C5
:1006D00011D0642264290B4600D31346C91A315045
:1006E00009D1D4217158002900D1D4E0DC22B258BC
:1006F000325000208847002C00D1C3E0972C00D155
:10070000C0E0C024305900282CD0BE25705BAA2739
:10071000C421715C80B2884224D201F07BFA0028A7
:1007200020D101F0FDF9B84203D101F029FAB84215
:1007300018D13059715B49014018CC2171580029FA
:1007400002D08847002807D0012803D13059715BB7
:100750004901401800F08AFB705B401C705331590E
:100760000029D5D1C420305CBE21715A86E0C04634
:100770000C1A0020E01B00206C1900206C180020CF
:1007800000F01AFB00F01AFBBE25714E77530420CF
:1007900001F074FA6060C0243159002972D0002839
:1007A00070D097286ED0705BAA27C421715C80B28C
:1007B000884267D201F02EFA002863D101F0B0F927
:1007C000B84203D101F0DCF9B8425BD13059715B1A
:1007D00049014018CC217158002902D088470028CF
:1007E00007D0012803D13059715B4901401800F04E
:1007F0003DFB705B401C705331590029D5D141E05D
:10080000D020534C2058002803D0E978490800F044
:1008100071FBC025605900282CD0BE26A05BAA27FA
:10082000C421615C80B2884224D201F0F3F900282F
:1008300020D101F075F9B84203D101F0A1F9B84215
:1008400018D16059A15B49014018CC216158002999
:1008500002D08847002807D0012803D16059A15B46
:100860004901401800F002FBA05B401CA0536159F5
:100870000029D5D1C420205CBE21615A814201D318
:1008800001F0C8F901F0C6F9002801D100F04CF9D7
:10089000012001B0F0BD2F480168002900D12AE7EE
:1008A000002CEFD0972CEDD02B480068401C03F0B3
:1008B00079FE2948016000F07FFA00F07FFABE203F
:1008C00000903752042001F0D9F96860C0257159B1
:1008D000002900D10FE7002800D10CE7972800D1AC
:1008E00009E70098305AAA27C421715C80B2884277
:1008F00000D300E701F08EF9002800D0FBE601F0FC
:100900000FF9B84204D101F03BF9B84200D0F2E649
:1009100070590099715A49014018CC217158002929
:1009200002D08847002808D0012804D170590099C6
:10093000715A4901401800F099FA0099705A401C08
:10094000705271590029CFD1D5E6C0466C190020EC
:100950006C180020081A0020041A0020B0B50546C3
:10096000072028400024012814D0022814D100298F
:1009700009D00B4801F042F968B200280ADA01F008
:100980004DF8002406E0FF2152310548002201F015
:100990004DF904462046B0BD022000F0BEF8C04626
:1009A0008E1A002010B58CB06C46204603F0A4FED1
:1009B000A085000406D1684601F054F90A90FF2092
:1009C00001F010F901F042F96946884202D10A9813
:1009D00001F048F96846808D002801D10CB010BDA7
:1009E00000F09BF810B582B01348784400F050FF37
:1009F000807801280CD001AC002020800120A0705C
:100A00000E48784400F044FF0322214601F010F81C
:100A10000B4C7C44204600F03BFF007804490870F2
:100A2000204600F035FF40780249087002B010BD42
:100A30008C1A00208D1A002012490000FA4800008C
:100A4000EA48000080B506480078002801D103F08C
:100A500083FC044979440020024603F041F880BD3C
:100A60006C1800204840000001460020002901D1F8
:100A7000014878447047C046613F000080B5FFF7E9
:100A8000E1FF80BD80B5002003497944034A7A44E0
:100A900003F05CFC80BDC046DBFFFFFFEBFFFFFF08
:100AA00080B5FF2001F09EF880BD80B5002001F0E8
:100AB000D9F880BDB0B5884208D9002A0FD0491EA8
:100AC000401E8B5C8354521EFBD108E0002A06D0E6
:100AD00000239CB20D5D05555B1C521EF9D1B0BDC3
:100AE00080B5002A04D00B4611461A4603F06AFD71
:100AF00080BD70B5401E491E541E0023002A0AD036
:100B00008D5C865CAE422246F6D00020C0430123B5
:100B1000AE4200D80346D8B270BD044601F096F844
:100B2000214603F0F5FD000080B501F073F80028C0
:100B300000D080BD06480021417060220270022270
:100B40008270C1700171052101F058F880BDC04666
:100B50000C1A0020B0B51A48C078032807DC012819
:100B60000DD0022828D1174802F047F8B0BD04285C
:100B70001FD0082820D1134802F03DF8B0BD114C19
:100B80000121204602F032F8204602F010F80E4C07
:100B9000A079002811D120460C30002506222946D4
:100BA000FFF79EFF12340C2220462946FFF798FFDC
:100BB000B0BD044802F01DF8B0BD1020FFF7ADFF36
:100BC0000C1A0020AC1D0020E01B00207F210140FA
:100BD0000020052902D802484018007B7047C04613
:100BE000E01B002080B515480179042917D002299F
:100BF00006D0012920D1811D124801F0DEFE80BD02
:100C0000C2787F211140052916D84A000C4B9A184A
:100C100000235382821D0B4801F055FF80BDC2782E
:100C20007F211140052907D8054A521843791373CB
:100C3000821D044801F0EFFE80BDC0460C1A002062
:100C4000E01B0020AC1D002070B5FF2A1ED8154601
:100C50000E4604460E485021017020210171427158
:100C6000D11C817080222243C270090A4170062182
:100C700000F0C4FF3046294600F0C0FF7F2020402E
:100C80004000044908187D210901418270BDC04619
:100C90000C1A0020E01B002080B50A460146822085
:100CA0001423FFF7D1FF80BD80B50A46014683209B
:100CB0001423FFF7C9FF80BD80B50C4801780029D7
:100CC00000D080BD062181710A21017008498A780F
:100CD0004B781B029A187D237D2A00D31A46428046
:100CE000C91C0448FFF7E6FE80BDC046E01B00209B
:100CF0000C1A00208E1A002010B520488178427806
:100D00001202511800780F280ADC0E2810D00F2884
:100D100022D10020012926D1FFF71CFF012010BDA0
:100D200010281DD0162817D1FFF7C6FF012010BDCF
:100D300013488168643181601C21425A002A08D01E
:100D40006423642A144600D31C46121B4252120428
:100D50000ED0891E1029F0D10220FFF70FFB10BD25
:100D60000020032900D210BDFFF73CFF012010BD79
:100D7000002101701020FFF7D0FEC0460C1A0020A1
:100D8000E01B0020B0B50A2000F03CFE084C002516
:100D9000202220462946FFF7A3FE65802570A57115
:100DA000A56000F031FB034805604560B0BDC0465A
:100DB000E01B0020001C00207047000002480021BA
:100DC000016041607047C046001C0020F0B589B04A
:100DD0000546084600F05CFD002843D00446006943
:100DE00000283FD0284600F053FD014602AD1C22EA
:100DF00028460192FFF75EFE2168E98062682A8139
:100E0000A068194F65233B7089B292B24A434243AE
:100E10005307D1084A1C002B00D10A460092042631
:100E20008640B0181D30B870000A7870032138462B
:100E300000F0E4FE2846019900F0E0FEA06838705A
:100E40000121384600F0DAFEE06800F021FDB1B281
:100E500000F0D4FE009885B2206900F019FD294603
:100E600000F0CCFE09B0F0BD0C1A002070B500F007
:100E70000FFD044600787F26064000F0CBFE0028D8
:100E800030D1002E2ED0E06900281DD000F000FDEA
:100E90000546052E02D1A07E002824D0284603F066
:100EA00045FC064612486521017031461C318170AF
:100EB000090A4170032100F0A1FE1C21204600F028
:100EC0009DFEB1B228460BE0094800214170652122
:100ED00001701C258570032100F090FE20462946F4
:100EE00000F08CFE70BD20462946FFF76FFF70BDF5
:100EF0000C1A002070B5002829D004461448066852
:100F000045688E4201D16D1C45600E43002902D018
:100F10000660324605E00022026042600D4B5B1C19
:100F20001E438A4201D000214160082D0CD30321C9
:100F3000284603F037FB012290073043002900D0F8
:100F40003046D107884300E030462946A04770BDAF
:100F5000001C0020FFFFFF7FF0B581B00F4E012481
:100F60003470B11CFF2750377A1C204600F02CFE4D
:100F7000054670703A1A3718F91C022000F024FE5A
:100F8000B8702D187619F47000F012FE30719020B0
:100F900070710020B071E81D01B0F0BD8E1A002004
:100FA000F0B58BB00746400708D007970798C0B246
:100FB00089B2FFF7D3FC80B20BB0F0BD8020069061
:100FC000A54CA44E079710203D4605408AB2002A42
:100FD00000D1B6E0002D00D0B3E00592029103905D
:100FE000049507E080210022304600F01FFE01201A
:100FF00000F046F900F00EFE0028F3D17D2000013C
:10100000A1680D182078092843DC072805994BD0E2
:10101000092865D100219148019101F0E1FA10E021
:10102000FFF782FD80210022304600F0FFFDA0681E
:10103000A84200D303E1FFF75FFE00F0EBFD0028BC
:10104000F0D1864801F024F80028E9D0059AD01D97
:101050004008A92800D3F8E0069810308049885449
:101060008818019A4270481D029A921C92B2FFF7AA
:1010700021FD05227A480199FFF732FD0698C01C30
:10108000C1B20298C01D83B27448754A01F0BCFA1F
:1010900041E00A28029A0CD00B28059923D1744804
:1010A000784400F01BFA36E07048784400F016FAF5
:1010B00031E010466B4908404008A92800D3C4E03D
:1010C00053203070B270100A70700321304600F067
:1010D00095FD6348059900F091FD002020701DE00A
:1010E000002800D1AEE00798C0B2FFF737FC002817
:1010F00011D0A7E0FFF718FD80210022304600F054
:1011000095FDA068A84200D399E0FFF7F5FD00F037
:1011100081FD0028F0D120780028EBD10020A071BB
:1011200020706080B90600D545E7FFF7FDFC380662
:10113000049D039805D5089008AA4B4B1846114604
:1011400001DF002D04D1780674D40020A071207036
:101150000020608000F05EFD002801D1FFF7E4FC74
:101160008021002530462A4600F060FD022806D87E
:10117000B178727812025118C91C81423DD1FFF733
:10118000BBFD608821780029E4D00028E2D03949ED
:1011900079440422324F3846FFF7ABFC00282ED0AA
:1011A0003549794404223846FFF7A3FC00282BD0A8
:1011B0003249794404223846FFF79BFC00283CD191
:1011C00006982A30C7B200F0DBFCB84225D10120D6
:1011D000234D2870A81C402100F0C4FC6870811CBD
:1011E0001B4A13461140069A10326A54C11C19401A
:1011F00000226A54011D154616E00020A7E7FFF7FC
:10120000ABFE014600250FE00020787006990846E5
:1012100010303870079D0D4305E0692010490870B3
:101220000698401D48700221EFB20795680700D16B
:10123000C9E6BBE66088401FBDE66088BBE61020BB
:10124000FFF76BFC0920FFF768FC0220FFF765FC45
:10125000FFFF00000C1A0020E01B0020081C0020EB
:101260008E1A0020FEFF0000BE9A0060EBFBFFFF1D
:1012700005FCFFFF24390000173900000C3900007D
:1012800070B5044600F0C6FC002801D1FFF74CFC05
:101290000C4E8021002530462A4600F0C7FC3078ED
:1012A000152806D8012181400748014201D0002CB1
:1012B00005D1FFF721FD0125002800D1054628466C
:1012C00070BDC0460C1A002020702000F0B581B01F
:1012D00000920446454EB14210D00F46434D0021C6
:1012E000402628463246FFF7FBFB009A402A00D3EF
:1012F000324628463946FFF7DDFB3C4EB0780128E0
:101300000ADC002825D0012860D1F01C042100F05F
:101310009DFB4021304628E0022824D0052855D1E5
:101320003079F17809020818314C21680027884289
:1013300052D1206800281BD00098401F85B22D484C
:101340000168A94201D2006885B22B480068711D6E
:101350002EE0F01C002704223946FFF7C1FB402194
:101360003046A04738E021484021A047002733E01D
:10137000B0797179090209182048016001684908AB
:10138000A82929D801681B480160717832781202B7
:1013900051181B4A116018491A4A0A600099C91F5E
:1013A0008DB20168A94201D2006885B2F11D1548CD
:1013B0002A46FFF77FFB0F480168491B01600E4872
:1013C0000168491901602068401C206009480168D3
:1013D00001200227002907D10548002101600648A5
:1013E000016004480160384601B0F0BD4C1C00208B
:1013F0008C1C0020941C0020981C0020901C0020B5
:101400009C1C00208E1A0020034800210160034824
:1014100001600348016070478C1C0020981C00206C
:10142000941C0020F0B581B0264F3A68264C216804
:10143000002921D0002A1FD00090264D00214022F3
:101440002846FFF74DFB0520A87023480168090ACC
:101450002970006868701D490868000AE87008680B
:1014600028710968206800290ED03B263B2800D847
:1014700026683968681D12E014480021016039604F
:101480001348017021601BE03926392800D82668EE
:101490002068000A68712068A8713968E81D324622
:1014A000FFF708FB009A09492068801B2060386814
:1014B000801938600868401C086006484021904741
:1014C00001B0F0BD981C0020941C00208C1C002052
:1014D000E01B00204C1C00209C1C002080B5002933
:1014E0000BD0064A00231360054A1160054A064BDB
:1014F0001360064A1160FFF795FF80BD8C1C002029
:10150000941C0020981C00208E1A0020901C0020A3
:1015100081B0F0B58EB01393022900D2AAE107463C
:10152000002800D1A6E11546002A00D1A2E10C4610
:10153000384603F03DF813A809902978002900D116
:1015400098E1641E002602E0A8194178761CC8B212
:10155000002801D02528F7D1A64200D326463846D8
:101560002946324603F02AF8A41BBF19002C00D1EB
:1015700080E1A95DAD19252900D014E106940497F6
:101580006B1C002420200A2108912746059407940B
:1015900003E009990A1D09920F681D462246297821
:1015A0006D1C00242D29F9D0472918DC2F29069C11
:1015B00028DD0B46303B0A2B6ED23029044600D181
:1015C0000C46079B002B00D004460A230798434390
:1015D0005818303807902B4620461446DDE7672917
:1015E000069C08DC62293EDC48294CD101460120DA
:1015F0000590084603E072291ADC68294AD11021B7
:10160000089117E0252900D1C0E02A2923D02E29EE
:1016100042D129782A2900D02AE16A786B1C01245A
:101620002A21482AB5D0682AB3D0732AB1D017E04E
:10163000732933D109990B1D0993032313400968BA
:10164000012B00D1B2E0022B00D1B2E0032B2B46DC
:101650001446A2D0B3E02978022473292B4698D0EF
:10166000049F069C9FE0632900D191E0642913D177
:1016700002900998011D09910068C11742184A405B
:10168000C00F0A2713E0582906D101460120059012
:10169000084605E0702903D0049F83E07829FBD138
:1016A00002900998011D0991026800201027012469
:1016B00097420892039012D80126384604463946CC
:1016C00002F0EAFEB04209D1384660430799491E4C
:1016D0000791089988422646F0D900E034460798D9
:1016E000411E039B002B00D101460026F043002B36
:1016F00000D1184601900298C2B2302A06D1002BC0
:1017000004D00AA82D23037000230126881E0D286B
:101710000BD80AA88019491E039302F053FF039BBC
:101720000798801901994018461E059A002B03D08E
:101730000AA82D218155761C002C1AD0002A02D02F
:101740005248784401E05048784407900898214670
:1017500002F0A2FE394602F025FF0798405C0AA974
:1017600088552046394602F097FE761CA74204466B
:10177000ECD9069CA64200D326460AA9049F384607
:10178000324602F01BFFA41BBF1909E0252003E02D
:101790000998011D09910068049F3870641E7F1C20
:1017A000002C67D02978002964D0CBE63E46049F00
:1017B0000DE0087800283FD0049F069CF2E7002245
:1017C0008B5C521C002BFBD1561E049F069C089874
:1017D000102827D1002EE5D008910020234601468D
:1017E000089A125C0F2010401209022B42D31C46AB
:1017F000059B002B04D0012B08D1224B7B4401E038
:101800001F4B7B44185C7870985C38702046A41E8F
:1018100002282FD00846481CBF1CB0422346DED306
:10182000079018E0A64200D326463846324602F01A
:10183000C5FEA41BBF190CE0069CA74200D3274697
:1018400020220498394602F0BDFEE41B0498C0191A
:101850000746002C0ED00798B042A3D9861BA6429B
:1018600000D3264620223846314602F0ABFE8AE7F6
:10187000049F98E700200EB0F0BC02BC01B00847FE
:10188000C1320000D73200007B33000091330000EA
:1018900080B50449884204D30349884201D200F04C
:1018A00005F880BD0000D0C04053D0C07A46024940
:1018B000C91C891A401A7047AD18D0C010B5074C22
:1018C000227807480270401C0649FFF7F3F8207899
:1018D000401CC0B2012101F079FF10BD921D002013
:1018E0008E1A0020201D002080B50020014601F046
:1018F0006DFF80BD70B50446806801F05BFF134941
:101900000860E078124901220A7012490870A16843
:101910000A1D114B1A60012817D1A088C42814D3BE
:1019200044310E4E202530462A46FFF7C3F8A16801
:101930003046203064314022FFF7BCF86036A168A1
:10194000A43130462A46FFF7B5F870BD9C1D002033
:10195000981D0020A01D0020941D0020A01C002028
:10196000F0B591B00C460546002610961C4800685C
:1019700006AF394601F0F2FE1A4803681A480078AB
:1019800010AA69464A6172220A61184ACA608E60CA
:101990004E604022002800D102460A6005223846E7
:1019A000314600F091F81249087028223846314635
:1019B000FFF796F80F480078012805D1A888C428B9
:1019C00002D30D49794401E00C49794400200246D4
:1019D00002F086F8206810210143216011B0F0BDAB
:1019E0009C1D0020941D0020981D0020201D00201B
:1019F000921D0020A01D0020303200001A3200008D
:101A000001DF704780B584B00190034801A9FFF75A
:101A1000F7FF04B080BDC0463701006080B582B0DA
:101A200002486946FFF7ECFF02B080BD3C0200604F
:101A300080B586B0019002910392034801A9FFF797
:101A4000DFFF06B080BDC0467F03006080B584B074
:101A50000090019103486946FFF7D2FF019804B056
:101A600080BDC0462C05006080B586B00090019115
:101A70000292039303486946FFF7C2FF019806B03C
:101A800080BDC0462C0B006080B586B000900191EF
:101A90000292039303486946FFF7B2FF019806B02C
:101AA00080BDC046EA2E006080B586B000900191EE
:101AB0000292039303486946FFF7A2FF019806B01C
:101AC00080BDC0462E2F006080B58CB00090019183
:101AD000029203930E9804900F9805901098069028
:101AE0001198079012980890139809900348694636
:101AF000FFF786FF01980CB080BDC0463B36006002
:101B000080B586B0019002910392044801A9FFF7C5
:101B100077FF029880B206B080BDC0466E9200602A
:101B200080B582B003486946FFF76AFF0198C0B2EA
:101B300002B080BD4F9F006080B58AB000900191D7
:101B4000029203930C9804900D9805900E980690BD
:101B50000F98079002486946FFF752FF0AB080BD10
:101B6000D8A6006080B584B0009001910348694612
:101B7000FFF746FF019804B080BDC046FCA8006096
:101B800080B582B003486946FFF73AFF0198C0B2BA
:101B900002B080BD3CA0006080B584B001900348D5
:101BA00001A9FFF72DFF029804B080BD58640060C2
:101BB00080B582B003486946FFF722FF019802B062
:101BC00080BDC0466E6A006080B586B0019002910B
:101BD0000392034801A9FFF713FF029806B080BDE6
:101BE000D474006080B584B00190034801A9FFF768
:101BF00007FF04B080BDC046BE9A006080B584B0C7
:101C00000090019102486946FFF7FAFE04B080BDDA
:101C10008183006080B582B003486946FFF7F0FE1B
:101C2000019802B080BDC046BB84006080B586B01C
:101C3000019002910392044801A9FFF7E1FE029886
:101C400080B206B080BDC046E485006080B582B039
:101C500003486946FFF7D4FE019802B080BDC04634
:101C6000B187006080B584B00190034801A9FFF7F7
:101C7000C7FE029804B080BD7588006080B584B04E
:101C80000190044801A9FFF7BBFE0298C0B204B05E
:101C900080BDC0468B9C0060F0B581B004463448DE
:101CA0000078002803D08321334A7A4445E006981F
:101CB000452803D88321314A7A443EE0072903D1DD
:101CC00083212F4A7A4438E01D46009040201E5C54
:101CD000002E18D0052E08D12846413029497944D4
:101CE0000522FEF706FF00282DD0284641300021AE
:101CF000254A7A44435C03270F40D75D5F40475431
:101D0000491C8E42F6D14520285C46300099884215
:101D100010D14135174829463246FEF7CBFE072041
:101D2000134988714E80092008700121204600F077
:101D300057FC06E08321154A7A440223204600F02E
:101D400063FC01B0F0BD0B4D04262E70681C1049D9
:101D500079443246FEF7AEFE681D0E49794432469C
:101D6000FEF7A8FE2878431D832120462A46E6E791
:101D7000E01B00208E1A0020682F00005C2F00005E
:101D8000522F00003A2F00002C2F0000F02E0000F0
:101D9000CE2E0000C72E0000F0B581B01D460E46C5
:101DA0000446184600F010FC00280ED02068C11C24
:101DB000090A6A469170811C090C5170411C090E78
:101DC0001170001D2060D07004E06846042229468E
:101DD000FEF770FE174F082238463146FEF76AFEBE
:101DE0003846083069460422FEF764FE0020787306
:101DF000022139730121B973F8733874284600F051
:101E0000E3FB0146201D8625002906D029467931AD
:101E1000C9B20422FEF764FE03E069460422FEF71D
:101E200049FE044A11232046294600F0EDFB01B08B
:101E3000F0BDC0468E1A0020F0B583B002908879BC
:101E40004B791B021F18887801904B780E78154645
:101E5000093DACB2A74204D0D01FD21F92B2974224
:101E60001BD13D46002E08D083211C4A7A44022310
:101E7000029800F0C9FB03B0F0BD022B18DC012B67
:101E800023D0022B1DD1A8B26A461060CB1D0022C0
:101E900002980199FFF700FFEDE7E4B2A742E1D015
:101EA000D2B297420546DDD083210D4A7A44DEE75F
:101EB000032B0ED0C12B04D183210A4A7A44042378
:101EC000D6E783210A4A7A44D1E78321064A7A4435
:101ED000CDE78321054A7A440823C9E7CA2D0000CB
:101EE000682D0000762D0000422D0000542D0000CA
:101EF000722D000080B5C1698A784B781B029B184F
:101F00000A78812A09D0832A0DD0862A0FD1C91CCC
:101F1000031D0022FFF740FF80BDCA1C9BB2812138
:101F200000F072FB80BDC91C9AB2FFF785FF80BD2F
:101F300070B5012A13D10D460146094C20462A46A8
:101F4000FEF7B8FD60194026721B00252946FEF7F2
:101F5000C7FD8120214632462B46FEF775FE70BD37
:101F60004C1C00200282C1600022C282827642851F
:101F70008284C16102627047F0B583B00D460446A9
:101F80002A20215C20462A30012948D0002939D155
:101F90002B210022625422462B322021635CDB1E5F
:101FA000DBB226462036012B3CD8238BE78ABB4286
:101FB0003AD9A07E032201260090002800D03246A4
:101FC000681E00260296361A4641B00010184022BC
:101FD000012D00D00A46161AD91BB14200DC0E466C
:101FE00031180191012D0746009806D1211D27487F
:101FF00004220292FEF75EFDA07E002821D0401E42
:10200000029929E02521615C062908D12B21635C16
:102010000022625422462B32002B03D1BDE72B2035
:102020000021215403B0F0BDFCD10021A176E18252
:1020300011700170B1803160E068E0611248017098
:10204000F0E74020205C1149029A88540120104397
:10205000627E0A54411C207E0C4B5854E1690029D1
:1020600005D0B2B2D819E38AC918FEF723FDE08A79
:102070008019E082A07E401CA076019881B20348BE
:102080002A46FFF755FFCDE7E01B00204C1C00203F
:102090002A21425C0121002A0DD0012A01D1002110
:1020A00009E02521425C0021062A04D12B21405C55
:1020B0000021091A4141084670470000B0B52B21A4
:1020C00001244454011D0B4D04222846FEF7F2FC66
:1020D00000206871832028710220A8716920E871AE
:1020E0007C20C043801C2872092128462246FFF725
:1020F0001FFFB0BD4C1C0020B0B52B21012444545F
:10210000011D084D04222846FEF7D4FC002068710A
:1021100088212971A871072128462246FFF708FF68
:10212000B0BDC0464C1C0020F0B581B0044625204F
:10213000205C26462536002505286AD008784B788D
:102140001B0218188B78CD782D02EB181B04181879
:10215000237965792D02EB18A579E7793F027D197E
:102160002D04EB18834257D108790B1D658C002D87
:1021700013D02423E75C23462433B8424CD1278B69
:10218000401C18707B1B501F984200DB18462A1811
:10219000628482B2208D491D23E07C25ED436D1DB4
:1021A000EFB28325B84204D12046FFF7A5FF0125F1
:1021B0002FE08F7949790902C919C91CA8422BD18E
:1021C000208B8DB2A84227D189B2164D242700203A
:1021D000E055121F8A4200DB0A4662841540194608
:1021E0002A46FFF78DFC2085218B628C01258A42CF
:1021F0000FD3E18C88420FD106203070002060841C
:102200002A20205C012804D12046FFF757FF002038
:102210003070284601B0F0BD052030701020FEF768
:102220007CFCC046FFFF0000F0B589B00446037295
:102230002020205C2646203603280CD00F462A2179
:10224000615C25462A35002915D020463946FFF71E
:102250006BFF002874D1D848062101720421317027
:102260007A21C9433A314022A1540830E06100206C
:10227000A076E0825EE00892042809D12B2000219C
:102280002154A176E1822970B1803160E068E0617B
:10229000581E1A460023191A414188000790411C14
:1022A0000898814238D804910692012A059305D1F5
:1022B000201D04223946FEF7FDFB059BE08A00281D
:1022C0000BD00698012821D120461230211D04226E
:1022D000FEF70FFC059B002818D00325079A10462F
:1022E00028430899884217D8B8180390B8567A211D
:1022F000C9437A3149B2852288423FDDAE48042184
:10230000017231703A32402162540FE00220079A84
:1023100010430899884215D9A748852101720421E4
:1023200031707A21C9433A314022A1540830E0612A
:10233000A376E38201202083217A2046FFF71CFE4A
:1023400009B0F0BD2120205C0699884249D130783F
:10235000012854D10698012800D080E0211D0422D4
:10236000384603921D46FEF7C4FB079A2B46002809
:1023700075D09148062101720399D1E70292069A1D
:10238000012A14D1307801281DD1201D2146123197
:1023900004220190FEF7ADFB069A002807D00398AF
:1023A00000780299491CC9B2884200D0EAE030782E
:1023B000012808D1012A7ED1039800780299491C8E
:1023C000C9B2884277D1049978184078795C0902BB
:1023D0000F18208AC01E87421FDD7748057204212E
:1023E0006CE07A20C04301460831734A117204211F
:1023F00031703A30402160540832E26198E7069823
:10240000012854D12B2000212154A176E18229708A
:10241000B1803160E068E06192E70398007881283C
:1024200004D0862853D0832800D095E0012A59D1C2
:10243000251D62497944042228460492FEF759FB7F
:10244000002807D05E49794404222846FEF751FB54
:10245000002847D158480B21017204992EE0B91881
:10246000B85CA27E904222D10898049A851AE08A2C
:10247000228B121A954200DB1546AFB2E2691018A2
:10248000491C3A46FEF716FB0699012908D1E08A55
:10249000E1690918E08C3A46FFF732FB0699E084BF
:1024A000E08A4019E082A07E401CA07640E04248CD
:1024B0000421017234E74048042101723170029A0C
:1024C0003A32402162540830E0610598D0E6012A92
:1024D00042D1201D3B49794404252A46FEF709FBD9
:1024E000002863D008980799451AF81C854200DB3C
:1024F00005460890AFB2E06903993A46FEF7DAFA6A
:102500000699012906D1E16900203A46FFF7F8FA59
:102510000699E0842120215408982083E5820598BB
:10252000A07620461230211D0422FEF7C3FA069938
:10253000E08A012902D1218B059B07E0218BCA1C6F
:102540008242059B02D21C480321E7E6884213D24F
:10255000636301203070F3E6174801210172042201
:102560003270029B3A334022A3540830E0610020CD
:10257000A076E0822183DFE6022030702046FFF75C
:10258000B9FCDDE60C4C042220460199FEF792FAD4
:102590000598607102983A3020710122A2710620DC
:1025A000E07108212046FFF7C3FCC9E602480B2171
:1025B0000172357083E7C0464C1C002006280000DD
:1025C000F82700006827000080B5044979440422F8
:1025D000FEF78FFA0021091A484180BD6E260000DF
:1025E00080B52A22835C02462A32002906D0002BBD
:1025F00008D101211170FFF761FD80BD012B01D1D0
:102600000220107080BD000070B504462A20205CB6
:10261000002809D0012824D02520205C062820D1BC
:102620002B20205C00281CD120200325255440208D
:1026300021540020A076E261E08223832120215CE6
:102640002546213503290DD1084E3078002808D0C1
:10265000032100E029782046FFF78EFC307800281F
:10266000F8D170BD2046FFF787FC70BDE01B00204D
:10267000024900200860024908607047A81D002038
:10268000A41D002010B50748002444704F2101709C
:10269000012181700221C1700421FFF7AFFA2046A9
:1026A00010BDC0460C1A002070B582B06D460024E3
:1026B0006C704F262E700220A8700320E8702C71D9
:1026C00005212846FFF79AFA6C702E700120A87039
:1026D000E87004212846FFF791FA204602B070BD49
:1026E00010B582B001A8002444704F21017001216F
:1026F00081700221C1700421FFF780FA204602B0E8
:1027000010BD0000B0B582B0144800240460144825
:1027100004606D464F2028706C700520A87004205E
:10272000E870012028716971AC71012A05DC002A6A
:102730000AD0012A0AD1042006E0022A03D0032A83
:1027400004D1022000E00320694688716846C37105
:102750000821FFF753FA002002B0B0BDA81D0020E9
:10276000A41D002010B582B06846002444704F229A
:102770000270052282700422C2700122027141712E
:102780008471C4710821FFF739FA204602B010BDE8
:10279000B0B582B00D4668460024447050210170E7
:1027A00003218170C5704021017144710621FFF73A
:1027B00025FA280601D5074800E0054801687F2270
:1027C00015400122AA400A430260204602B0B0BD73
:1027D000A81D0020A41D0020B0B582B00D4668469B
:1027E000002444705021017003218170C570802144
:1027F000017144710621FFF701FA280601D5074847
:1028000000E0054801687F2215400122AA4091435B
:102810000160204602B0B0BDA81D0020A41D00200C
:10282000080601D5054800E0034802787F200140F2
:102830000120884010407047A81D0020A41D0020E2
:1028400010B582B06846002444704F220270022204
:1028500082700322C27001710521FFF7CFF9204673
:1028600002B010BDB0B582B01C4615466846502275
:102870000270C170202101714371D91C8170090A55
:1028800041700621FFF7BAF928462146FFF7B6F94D
:10289000002002B0B0BD10B582B06846002444707C
:1028A0005023037003238370C17030210171427182
:1028B0000621FFF7A3F9204602B010BD70B504460B
:1028C0000220002C12D015460E46452081002046DD
:1028D00001F06EFE002E01D0F0202650DC200121F8
:1028E000215425702046FFF7C3FE002070BDB0B50F
:1028F0000446DC20012121541720C54360194321DF
:1029000089004058002806D04068FEF7C1FF024603
:102910002179204690470835F0D12046FFF7E0FEA8
:102920002046FFF7AFFE0020B0BD03460220002A7C
:1029300007D00020022B04D8D8000818F4214250F8
:102940000020704780B5FFF7AFFE002080BDF0B5D6
:1029500081B00C4605460026F4272846314600F093
:1029600069F9002807D0E8590068FEF791FF024690
:102970002846214690470837761C032EEDD10020CB
:1029800001B0F0BDF0B581B00C4605460026F42735
:102990002846314600F04EF9002807D0E859406833
:1029A000FEF776FF02462846214690470837761CF8
:1029B000032EEDD1002001B0F0BDB0B504460546B0
:1029C000E835284600F079FBD42001212150EE2083
:1029D000205AD8216050E820215C1F20084002289E
:1029E00008D001280BD000280ED12046294600F03F
:1029F0002EF90EE02046294600F0DBFA09E02046D9
:102A0000294600F0B2FA04E0802001402046FFF79A
:102A1000BFFE0020B0BDF0B583B002920446019124
:102A200000291CD02546DC350027F42620463946EF
:102A300000F000F900280DD0A0598069002809D0C5
:102A40002978032906D1FEF723FF03462046019982
:102A5000029A984708367F1C032FE7D130E0D42034
:102A6000205803282CD180202058E16F81420AD9B8
:102A7000091AE167814200D301468AB220460299D1
:102A800000F0E0FD1CE02646DC360025F427204659
:102A9000294600F0CFF800280BD0E0590069002843
:102AA00007D03178032904D1FEF7F2FE0146204613
:102AB000884708376D1C032DE9D1204600F0C9FD79
:102AC000002003B0F0BDF0B581B0044600910029AC
:102AD0001BD02746DC370026F4252046314600F07F
:102AE000A9F800280CD060594069002808D039782E
:102AF000032905D1FEF7CCFE0246204600999047F7
:102B00000835761C032EE8D14EE0D4202058022848
:102B100043D1E069256AA8420BD911210A01A158C5
:102B20004919A150401BE06182B2204600F07CFDB3
:102B300033E0A6693046294601F034FDAE420FD39A
:102B400000290DD1D82020582746D837864207D2F1
:102B50000025204629462A4600F066FD3D601CE01F
:102B60002646DC360025F4272046294600F062F888
:102B700000280BD0E059C068002807D0317803291D
:102B800004D1FEF785FE01462046884708376D1CB4
:102B9000032DE9D1204600F068FDE020205CE03400
:102BA000012801D100202070002001B0F0BD70B5D7
:102BB0000446802040212150DC2001222254216241
:102BC0000025F4262046294600F034F8002807D0D6
:102BD000A0594068FEF75CFE0246217920469047E6
:102BE00008366D1C032DEDD1002070BD017400204E
:102BF0007047002070470020704770B50446DC2005
:102C0000205C032814D10025F4262046294600F034
:102C100011F8002808D0A059C069002804D0FEF798
:102C200037FE01462046884708366D1C032DECD13F
:102C3000002070BD02460020022907D8C8001018E5
:102C4000F42141580120002900D10846704780B581
:102C50004A78042A08DD072A0FDC052A14D0062A40
:102C60001BD100F021F81DE0002A10D0012A17D056
:102C7000032A12D100F034F914E0082A0AD0092AF4
:102C80000BD100F0BDF80DE000F094F80AE000F080
:102C900005F907E000F0EBF804E000F0E1FB01E0EB
:102CA00000F03BF9002080BDB0B582B00D4604466F
:102CB00001A8002101806A88100A052812DC012879
:102CC0001CD0022824D0032837D1D0B2022839DC06
:102CD00000285FD0012865D002282ED1F02020588E
:102CE000C0680EE006281CD0072823D00F2824D166
:102CF000F0202058C069002803D11EE0F0202058A1
:102D00000068FEF7C5FD0246207C01A990472FE030
:102D1000F420205800282CD0217C002922D0C06A21
:102D200021E0207C002808D1F4202058002804D07D
:102D3000406B18E0207C00280ED02046294600F089
:102D40008FFB25E0032829D004282FD00528F4D1B3
:102D5000F02020588069D4E7F42020580028ECD0D7
:102D6000006B00E0806AFEF793FD014601A88847EA
:102D7000014601A80288002A0AD0E888002807D066
:102D8000824200D3024601A80280204600F036FCB1
:102D900002B0B0BDF02020584068B2E7F0202058C3
:102DA0000069AEE7F02020588068AAE7F02020589C
:102DB0004069A6E770B50446888800280BD1C8880A
:102DC000002808D148887F250540DC20205C264665
:102DD000DC36032803D1204600F042FB70BDDE2024
:102DE000255420462946FFF72BFD204600F031FCF4
:102DF000002D02D00220307070BD0120307070BDF7
:102E000070B50D4604468E78022E1DD2DC20215C62
:102E10002046DC30032907D0022915D1002E22D00C
:102E200066600321017009E0002E12D06068B04294
:102E300019D0C1B22046FFF7A5FD66602046314695
:102E4000FFF785FD02280ED12046294600F008FB39
:102E500070BD02210170666020463146FFF792FD89
:102E6000204600F0F6FB204600F0F3FB70BD80B575
:102E7000CA88012A0AD1DC22825C032A09D0022AEC
:102E800004D1002181600146083103E000F0E8FA36
:102E900080BD011D012200F0B1FB80BDB0B504462C
:102EA000DC20205CFE220240022A15D10120E060D5
:102EB000E420215825460C350320002905D0204662
:102EC00000F0D3FBE16802200843E06002222046C4
:102ED000294600F093FBB0BD204600F0C1FAB0BD1A
:102EE000B0B504464888012816D10D46E4200121DA
:102EF0002150287902280CD8C0002018F42140580D
:102F0000002806D08068FEF7C3FC0246204629460A
:102F10009047204600F09DFBB0BDB0B50D4604467D
:102F2000DC20205CFE210140022919D1688801289B
:102F30001AD1E42000212150287902280CD8C000A1
:102F40002018F4214058002806D08068FEF7A0FC25
:102F50000246204629469047204600F07AFBB0BD45
:102F60002046294600F07CFAB0BDB0B50D460446B7
:102F7000DC20205C032816D12879022813D8C00051
:102F80002018F421405800280DD08068FEF780FCFE
:102F90000246204629469047E888002807D1204667
:102FA00000F057FB03E02046294600F059FA0020C4
:102FB000B0BDB0B50D4604460878602202400979DC
:102FC000202A0FD102290DD8C8002018F4228058D9
:102FD000002807D08068FEF75BFC024620462946A1
:102FE000904768E06878002816D001281DD0032893
:102FF00061D1DC20205C03281BD16888002807D120
:1030000080200843802803D02046FFF7C1FB2979A0
:1030100002294DD8C8003FE0DC20205C032817D0EF
:10302000022810D148060AD145E0DC20205C0328A4
:1030300026D0022807D18020084380283BD0204694
:10304000FFF7A6FB37E02046294600F009FA32E0F8
:103050007F200840000120180546743514300A0608
:1030600000D505462046FFF7DBFB0121002800D1F3
:103070000146296002222046294600F0BFFA1AE0E4
:103080006888002817D1480612D02046FFF7A4FB15
:10309000287902280CD8C0002018F42140580028B4
:1030A00006D08068FEF7F4FB02462046294690478A
:1030B000204600F0CEFA0020B0BD0A7802704A78AF
:1030C00042708A78CB781B029A1842800A794B7931
:1030D0001B029A1882808A79C97909028918C180ED
:1030E000704710B504468021FFF752FB00212046AF
:1030F000FFF74EFB10BD70B582B00D46044601A926
:1031000000200880694608702A7860211140002953
:1031100010D0202938D169780A460A3A022A33D3D6
:1031200002291BD0032919D02046294600F098F91E
:10313000022029E069780B2913D00A290ED006292C
:1031400022D16888000A002221280ED022281146A8
:1031500016D101AE304600F057F80AE06946012268
:103160000EE0204600F075FA0DE001AE304600F0AA
:1031700031F801463288E888824200D30246328024
:10318000204600F03BFA002002B070BDF0B581B0DF
:10319000044682210326402532462B46FFF7B2FA29
:1031A00002272046394632462B46FFF7ABFA204627
:1031B00039462A46FFF76FFB002001B0F0BD10B57D
:1031C00004468221FFF7CEFA02212046FFF7CAFA11
:1031D000002010BDEC21094A515C0922012905D0CB
:1031E000002906D107497944092204E004497944B9
:1031F00001E000221146028008467047AC1D002005
:10320000561A00006A1A0000F0B581B00446EC209E
:103210001349085C2221002819D001281AD110482E
:103220008121032740263A463346FFF76BFA0125F2
:103230000B4829463A463346FFF764FA08482946C0
:103240003246FFF728FB08487844222104E005486D
:10325000784401E000210846218001B0F0BDC0465D
:10326000AC1D00202B1A0000111A0000F0B581B02F
:10327000044681210326402532462B46FFF742FAB9
:1032800001272046394632462B46FFF73BFA2046B7
:1032900039462A46FFF7FFFA002001B0F0BD0000D2
:1032A00080B5012903D103480121FEF765FE002006
:1032B00080BDC046081C0020B0B501290ED11446BF
:1032C000012540222946FFF7E6FA2846FDF77EFC55
:1032D0000246034821462B46FEF7A6FF0020B0BD5C
:1032E000081C002080B5022903D103487844FEF76A
:1032F00099F8002080BDC046A9D9FFFFB0B50229CA
:103300001AD1144602214022FFF7C5FA0B4DA879C5
:10331000002811D10220FDF759FC024609487844E3
:103320002146FDF7D3FF022806D10720287001208F
:10333000A8710348006868800020B0BDE01B002031
:10334000901C002077D9FFFF70B504468321032528
:1033500040262A463346FFF7D5F9204629462A4615
:103360003346FFF7CFF9204629463246FFF793FA56
:10337000002070BD002070470020704780B50329F1
:1033800003D103487844FEF74DF8002080BDC046C5
:1033900021D9FFFFB0B503291AD1144603214022D9
:1033A000FFF779FA0B4DA879002811D10320FDF71A
:1033B0000DFC0246094878442146FDF787FF0228A4
:1033C00006D10B2028700520A8710348006868808A
:1033D0000020B0BDE01B0020901C0020EFD8FFFFB4
:1033E00012200880014878447047C0462A1B00001C
:1033F00004200880014878447047C0462C1B000018
:103400000E200880014878447047C046201B000009
:103410000E200880014878447047C0461E1B0000FB
:103420000A200880014878447047C0461C1B0000F1
:103430000E200880014878447047C046FE1A0000FC
:103440000E200880014878447047C046EE1A0000FC
:1034500039200880014878447047C0465E18000053
:1034600080B50A7852B2002A02DBFFF73AFE80BD2F
:103470004A78062A13D0772A1FD01E2AF5D18A88C7
:10348000022AF2D14A88012AEFD1CA881721172AC5
:1034900000D30A461D49794400F0B0F880BD4A883F
:1034A000194B9A42E1D1CA881221122A00D30A4646
:1034B0001749794400F0A2F880BD8A88042A09D10E
:1034C000CA882821282A00D30A461249794400F0E4
:1034D00095F880BD8A88052A09D1CA889221922A46
:1034E00000D30A460C49794400F088F880BD8A88E8
:1034F000072ABAD1CA88B221B22A00D30A4607499C
:10350000794400F07BF880BDEE030000071800004E
:103510005E180000801A00003C180000B41800007B
:10352000F0B581B004464520850024480026314688
:103530002A46FDF7D5FA224F38460C30062231468E
:10354000FDF7CEFA12370C2238463146FDF7C8FA9D
:10355000002C2DD0194C0026204631462A46FDF776
:10356000BFFA1A49794420463246FFF7A7F9184AAC
:103570007A4430462146FFF7D8F90120154A7A44AB
:103580002146FFF7D2F9FF2252320E480E49FEF7CC
:10359000E9FC0220104A7A442146FFF7C6F90321CC
:1035A00040222046FFF777F92046FFF7CBF902E0EB
:1035B0000248FFF79CF901B0F0BDC046AC1D0020E9
:1035C000E01B0020081C00208E1A00208C17000031
:1035D000F818000022190000421900006021018043
:1035E000014878447047C046921900000A210180C2
:1035F000014878447047C046E2190000B0B50C4657
:10360000D421022343501121090144508261C26137
:10361000016A914200D80A4693B200252946224603
:10362000FFF720F92846B0BDB0B50C46016A9142BB
:1036300000D80A4693B2002529462246FFF712F920
:103640002846B0BD10B500242146FFF724F92046D6
:1036500010BD10B5D4210422425000242146224638
:103660002346FFF7FFF8204610BD10B5D4210522F0
:103670004250002421462246FFF70DF9204610BD96
:1036800070B5012A13DB541E9200121F084B7B44B5
:103690000425954366108E5DEE400F2535405D5D37
:1036A0000555121F651E641C012C2C46F0DC70BDF4
:1036B0005019000070B592B00C46014609AD2026A5
:1036C00028463246FDF7F6F901AA28463146334628
:1036D000FEF7CAF927229C200B497944042383432F
:1036E000551001AE755DDD400F232B40CB5CA3541C
:1036F000001F531E521C012A1A46EFD82820002111
:10370000215412B070BDC04604190000F0B59DB040
:103710000C4613AE314600F021F841206D460123DE
:1037200029463246FEF7C0F90027282130460E46CA
:1037300039463246FDF7D4F948352878E0556D1EF4
:103740007F1C202FF9D16846805DC00703D0E07F41
:1037500080210143E1771DB0F0BD0000F0B593B0CA
:103760000591064606AD1249794414222846FDF714
:10377000A1F90120C1073143089100266946CE60B6
:103780008E604E600BAF0F604124052321462A4610
:10379000FEF7D2F92025204639462A46059BFEF73A
:1037A00073F9384631462A46FDF79AF913B0F0BD51
:1037B00088180000017809064278120451188278AE
:1037C00012028918C07808187047000010B57A22D4
:1037D000D24314460B346923002900D11C46084B00
:1037E0001C540024002900D11446411CC9B25C5469
:1037F000801CC1B22020FDF7D3FBFDF723F910BDDB
:103800008E1A002008490A7802704A7842708A7835
:103810008270CA78C2708A794B79C91D8160190299
:10382000891881807047C0468E1A0020B0B51249B1
:103830000A780120012A1DD8521E0C235343CB18AD
:103840001A8B002A16D01969002913D09B8A002BE5
:1038500006D194000C190325ED436459E41C09D1E9
:10386000934206D29A0089180322D2438958891CB0
:1038700000D00020B0BDC0466C18002010B50E4925
:103880000A780120012A16D8521E0C235343CB1864
:103890001A8B002A0FD0196900290CD09B8A541E5C
:1038A0009C4208DD921E9A4204DD9A0089184968FC
:1038B000891C00D0002010BD6C1800200848017839
:1038C00000290AD00C224A4380184189028901202C
:1038D0008A4203D8FF208A4200D3002040B27047BA
:1038E0006C180020F0B581B00146164A1078012806
:1038F00026D8401E0C234343D218168B002E1FD00F
:103900001569002D1CD0022E1AD3948A1346143345
:10391000771EA74214DDB61EA6420ADBA600AD192B
:103920006D68AE1C0CD0ED1C03D100211980D18232
:1039300004E0D482621C1A80002901D000F03CF817
:1039400001B0F0BD6C18002080B50120FFF7CAFF60
:1039500080BD0000B0B517490878012828D8401E5E
:103960000C22424389180A8B002A21D00C69002CB2
:103970001ED0022A1CD38D8A0B461433002D0AD088
:10398000AA00A2180324E4431259921C10D0CD823D
:10399000691E19800AE0950064190325ED436459F6
:1039A000E41C05D1941E1C80521ECA8200F004F84B
:1039B000B0BDC0466C180020F0B581B004460C20A4
:1039C00060431A490E183069B18A89004058374659
:1039D000143710360321C943884224D8FDF758FF15
:1039E00031683A889200895805680846FDF750FF0B
:1039F000002D06D00068FDF74BFF014620468847A2
:103A000011E08068FDF744FF054630683988890079
:103A10004058FDF73DFF4068FDF73AFF024620465B
:103A2000294600F05DF801B0F0BDC0466C180020DA
:103A3000F0B581B0294D2878012825D8401E0C26E4
:103A400070432A18108B00281ED0116900291BD042
:103A5000928A824218D290000858FDF719FF8068B8
:103A600029784C1E6643002810D0A8190169808A65
:103A700080000858FDF70CFF8068FDF709FF01463C
:103A80000022204600F02CF801B0F0BDA819038BED
:103A9000002BF9D0828A014614319B1E9342F3DB3E
:103AA00005699600AE197668F71C10D0B61CEBD1EC
:103AB0001646B600AE197668B61C04D1521C0A80B0
:103AC00096B2B342F5DAC282501C088002E00022AE
:103AD0000A80C2822046FFF76FFFD5E76C180020EE
:103AE000F0B583B001920C460C221146029041437E
:103AF0001F4B5F180021398339617961181DFCF76C
:103B0000EFFF20463C4610343D4618353E461636FB
:103B1000143700282AD0FDF7BBFE206029888A00D0
:103B20008258521C06D0491C8AB292008258521CFC
:103B3000F9D129800198002815D0FDF7A9FE054686
:103B400020683988890040580BE0FDF7A1FEA842A3
:103B500009D038883080401C388080B280002168CD
:103B60000858411CF1D10298FFF726FF03B0F0BDC1
:103B70006C18002080B50A49884208D0094988425B
:103B800008D00949884208D1FFF7E4FE05E0FFF7B5
:103B90004FFF02E00120FFF7A5FE002080BDC046D8
:103BA00003000080020000800100008010B5014683
:103BB000002000290FD1084C218BA28A8A420AD208
:103BC0002069FDF765FEA18A89004058FDF760FE77
:103BD0004068FDF75DFE10BD6C18002080B50348FD
:103BE0000078401EFFF7E2FF80BDC0466C18002041
:103BF00010B5044600F0F2FB242060430849081881
:103C0000C42105224254C021064A7A444250BD21B3
:103C100001224254D021044A7A44425010BDC04689
:103C20006C180020FA13000059FFFFFF80B500F068
:103C3000E9FA9D22002806D003498A5C112A02D1A4
:103C4000B422024B8B5280BD6C1800200A80000009
:103C500010B50446FFF7CCFF242060430449081840
:103C6000CC21044A7A444250204600F091FB10BD1A
:103C70006C180020C5FFFFFF70B50546FFF7AEFFCB
:103C80000446114E30469C3020222946FCF712FF94
:103C900068780146103905290AD29D20305C0F2131
:103CA000014088002058B82170509C36304670BDC5
:103CB000022803D00128F8D1616800E0E168002003
:103CC0000029F2D1F3E7C0466C18002010B5044675
:103CD00000F084FB242060430B490818C42106220D
:103CE0004254C021094A7A444250BD210122425423
:103CF000CC21074A7A444250D021064A7A444250A5
:103D0000204600F045FB10BD6C180020BE130000DB
:103D100081FFFFFF75FEFFFFF0B585B00E46FFF790
:103D200045FF0490454C20460C30002502272946CB
:103D30003A46FCF7D5FE20460E30039529463A4612
:103D4000FCF7CEFE701C029002D0A068002872D052
:103D500004984068FDF79CFD074600F0E7FC391821
:103D600001220392012866DB60680390A06800903E
:103D700000203C46019704900020074625463E4619
:103D8000E2198A4215D2C01D771C722811D8137807
:103D90001E46093E022E06D3202B04D02D2B02D026
:103DA0005F2B00D02A4615460A2BE8D1E0193E4683
:103DB00000E0A019019F884223D2002E21D0A54205
:103DC0001FD0A0190022D243805C2C2806DC0246BA
:103DD000093A022A15D3202813D003E02D2810D049
:103DE0005F280ED0A05D2C2806DC0246093A022A84
:103DF00007D3202805D003E02D2802D05F2800D06B
:103E00002E1B02980028049B06D00398984203D1E9
:103E10000398009A904209D3A419581C8C4200D3ED
:103E200018468C42A7D3401C039004E00348014687
:103E3000C681E01B8881039805B0F0BD6C18002096
:103E4000B0B50446FFF7D4FE094D69682046FFF778
:103E500063FF242060432818CC21064A7A4442504C
:103E6000D021054A7A444250204600F091FAB0BD74
:103E70006C1800201D00000015010000F0B583B093
:103E80000546FFF7ABFE0446374E30469C302022F5
:103E90002946FCF70FFE6878102816DC012833D07D
:103EA00002283BD010285AD12068002841D0B4689D
:103EB000FDF7EEFC03467068B1686A46401C03C219
:103EC000012C41D82A4A7A4440E00146113903299D
:103ED00045D20F210840401E40003718FD89002DB3
:103EE0003DD06068FDF7D4FCB98940186946086088
:103EF00034461C348021204A7A4420462B46FDF764
:103F000007FBB82034502AE0FFF790FC0146002060
:103F1000002924D07168002923D020E0FFF7AEFCEF
:103F200000281CD07168B068421E0020914216D152
:103F300017E07168B0686A46106030461C304B1C50
:103F400080210C4A7A4404E0084A7A4430461C3006
:103F50008021FDF7DDFA30461C30B82170509C36C8
:103F6000304603B0F0BDC0466C1800201A120000A5
:103F7000A91200002E1200008012000080B517491F
:103F800088420BD01649884213D01649884222D164
:103F90001548416800291CD0491E14E01249886860
:103FA000002803D04968401E884214D1FFF740FD25
:103FB00011E00D4841688268521E914202D1FFF71C
:103FC000C3FC08E0491C41600078401EFFF738FF41
:103FD00001E0FFF7BFFC002080BDC0460300008069
:103FE00002000080010000806C18002070B50446BB
:103FF000FFF764FC01280BD0401C0FD11C4E301D74
:1040000000250C222946FCF76BFDE843706005E0B3
:104010001748001D00210C22FCF762FD204600F02D
:10402000DDF92046FFF7C2FD4068002819D00020C6
:10403000C1432046FFF770FE0D4DA860002807D150
:10404000281D00210C22FCF74BFDA868002804D095
:10405000401E6968814200D968602046FFF7F0FE83
:1040600070BD0348001D00210C22FCF739FD70BD16
:104070006C18002070B50546FFF7B0FD0446124EDF
:1040800030469C3020222946FCF714FD68780F2822
:1040900006DC01280AD0022812D1FFF7EFFB07E067
:1040A00010280AD011280BD1606807E0FFF7BEFB8B
:1040B00001460020002903D070BD2068B82170504F
:1040C0009C36304670BDC0466C18002010B50446C2
:1040D00000F084F9242060430B490818C42105220C
:1040E0004254C021094A7A444250BD21012242541F
:1040F000CC21074A7A444250D021064A7A444250A1
:10410000204600F045F910BD6C1800209A10000000
:104110007DFFFFFF75FAFFFF70B50546FFF75EFDF7
:104120000446164E30469C3020222946FCF7C2FC3D
:1041300068780F2807DC012812D0022813D00F2836
:1041400018D1206809E01038022813D29D20305C75
:104150000F210140880020184068B821705009E004
:10416000FFF764FB01E0FFF789FB0146002000290F
:1041700000D070BD9C36304670BDC0466C18002023
:1041800010B5044600F02AF92420604308490818B5
:10419000C42106224254C021064A7A444250BD211D
:1041A00001224254D021044A7A44425010BDC046F4
:1041B0006C18002086100000C9F9FFFF80B5FFF7DA
:1041C000ABFF9D22002806D003498A5C102A02D347
:1041D000B4220A238B5280BD6C18002010B504460F
:1041E000FFF7CEFF2420604304490818CC21044A7D
:1041F0007A444250204600F0CBF810BD6C180020E5
:10420000C9FFFFFF70B50546FFF7E8FC0446124EF4
:1042100030469C3020222946FCF74CFC6878022866
:1042200004D0012809D1FFF701FB01E0FFF726FBCD
:104230000146002000290BD070BD9D20305C010696
:10424000090F05D00F21084080002058B821705078
:104250009C36304670BDC0466C180020B0B517497A
:10426000884211D01649884215D01649884222D179
:10427000F820154C2158E0256059401E8847002839
:1042800019D06059401E11E0E0200F490858FC2267
:10429000895888470FE0F8200B4C2158E0256059D9
:1042A000401C8847002806D06059401C6051207887
:1042B000401E00F00BF80020B0BDC0460300008097
:1042C00002000080010000806C180020F0B581B071
:1042D00004460120C6430C4D2F46E437F8202958E8
:1042E000E02028583018884701C7761C032EF5D1E6
:1042F0002046FFF7EBFC242060432818D021034A16
:104300007A44425001B0F0BD6C18002059FFFFFF05
:10431000B0B50446F8200B4D2950E0202B50FC206E
:104320002A502046FFF742FCE435A84206D0064951
:10433000794400222046FFF7D3FBB0BD2046FFF7AB
:10434000C5FFB0BD6C180020C00F000080B5002371
:10435000FFF7DEFF80BD0000B0B50C4D28780028C7
:1043600011D12846BC30002424222146FCF7B8FB9A
:1043700028780C225043281810302146FCF7B0FB57
:104380002878401C2870C0B2401EB0BD6C180020B8
:10439000B0B504461048017800290ED0621C8A424C
:1043A0000BD1242161434518FCF706FDBE200021F6
:1043B0002952204600F026F8B0BD0022531A4B4186
:1043C000611C521A4A411A43012A04D14178AA2990
:1043D00001D169214170B0BD6C18002070B5242452
:1043E000604307490E18FCF7E7FC3046BC30002557
:1043F00029462246FCF774FBBC20355470BDC046EC
:104400006C180020F0B581B004460420FDF736FC9E
:1044100000283CD097283AD0242060431D490C182E
:10442000C02020582546C0352646BE3600282ED04E
:104430002046CC300090C4343088AA27217880B23E
:10444000884224D2FDF7E6FB002820D1FDF768FB67
:10445000B84203D1FDF794FBB84218D128683188DF
:104460004901401800990968002902D088470028AE
:1044700007D0012803D12868318849014018FBF78B
:1044800079FF3088401C308029680029D6D101B0DE
:10449000F0BDC0466C180020002243088B4274D344
:1044A00003098B425FD3030A8B4244D3030B8B4235
:1044B00028D3030C8B420DD3FF22090212BA030C3E
:1044C0008B4202D31212090265D0030B8B4219D31F
:1044D00000E0090AC30B8B4201D3CB03C01A52413F
:1044E000830B8B4201D38B03C01A5241430B8B4287
:1044F00001D34B03C01A5241030B8B4201D30B0370
:10450000C01A5241C30A8B4201D3CB02C01A524196
:10451000830A8B4201D38B02C01A5241430A8B4259
:1045200001D34B02C01A5241030A8B4201D30B0242
:10453000C01A5241CDD2C3098B4201D3CB01C01A5C
:10454000524183098B4201D38B01C01A5241430966
:104550008B4201D34B01C01A524103098B4201D354
:104560000B01C01A5241C3088B4201D3CB00C01AC1
:10457000524183088B4201D38B00C01A5241430839
:104580008B4201D34B00C01A5241411A00D201465E
:10459000524110467047FFE701B5002000F006F8D1
:1045A00002BDC0460029F7D076E770477047C04685
:1045B00010B5002200F006F810BDC04610B500F09E
:1045C00009F810BD130010B50A00190000F04EF8EC
:1045D00010BDC04670B588420BD98B18984208D2DE
:1045E000991A531E002A03D0CA5CC254013BFBD265
:1045F00070BD0F2A09D80500002AF9D00023CC5C31
:10460000EC5401339A42FAD1F2E70C0004430B0058
:10461000A40726D115000400103D2D0901352D01F8
:1046200049191E6826605E6866609E68A660DE683E
:104630001033E66010349942F3D10F244519144029
:10464000032C10D90023043CA4080134A400CE5844
:10465000EE5004339C42FAD103232D1909191A4054
:10466000CAE70500CAE72200C6E7C04670B583075F
:104670003FD0541E002A3BD0CEB20300032503E0F6
:10468000621E002C34D0140001335A1E16702B42C7
:10469000F6D1032C24D9FF250D402A0215432A0404
:1046A00015430F2C11D92600103E3609013636016C
:1046B0001A009B19156055609560D56010329342C1
:1046C000F8D10F221440032C0AD9261FB608013650
:1046D000B6001A009B1920C29342FCD10322144059
:1046E000002C05D0C9B21C19197001339C42FBD1B2
:1046F00070BD14000300CCE7F0C041464A46534663
:104700005C466D4676467EC02838F0C8002070476B
:1047100010307CC890469946A246AB46B54608C8BC
:104720002838F0C8081C00D10120184710B58307AD
:1047300027D00378002B26D00300032102E01A784B
:10474000002A1CD001330B42F9D119680F4A104CD2
:104750008A188A4322420FD1043319680B4A8A18F7
:104760008A43224208D104331968084A8A188A43C6
:104770002242F1D000E001331A78002AFBD1181A46
:1047800010BD0300E1E70020FAE7C046FFFEFEFE91
:1047900080808080416464726573730041707072C0
:1047A0006F76650052656A65637400009447D0C0F7
:1047B00000180020ED3FD0C0AC47D0C00000000082
:1047C000000000006900D0C00000000000000000F0
:1047D00000000000C447D0C0FFFFFFFFBC49D0C0AD
:1047E0009C47D0C0CD40D0C0DC47D0C0D447D0C05B
:1047F000000000009900D0C0000000000000000090
:1048000000000000F447D0C0FFFFFFFFCC48D0C03D
:10481000A447D0C0CD40D0C00C48D0C00448D0C0C0
:1048200000000000B447D0C0E447D0C01448D0C056
:10483000FFFFFFFF00000000FFFFFF00FFFFCFF3BF
:1048400087E103C003C003C087E1CFF3CFF387E163
:1048500003C003C003C087E1CFF3FFFF10000000D7
:1048600010000000010000003448D0C03C48D0C017
:1048700000000000FFFFFF00000000000C400BF8EC
:1048800007FCC0F3F03CF003FE012D000300000024
:10489000000000000E0000000E00000001000000FB
:1048A0007048D0C07848D0C000000000FFFFFF0073
:1048B000008001E6C071383807FC001E8007F00355
:1048C000CEC1E13870061800000000000E000000A4
:1048D0000E00000001000000A848D0C0B048D0C0C1
:1048E00000000000FFFFFF00000000000C8007F048
:1048F00003FEC1FFF03FF003CC0033C00C0000000A
:10490000000000000E0000000E000000010000008A
:10491000E048D0C0E848D0C000000000FFFFFF0022
:104920004111050107000000040000000100000023
:104930001849D0C02049D0C000000000FFFFFF0090
:1049400048124208040000000700000001000000B7
:104950003849D0C04049D0C000000000FFFFFF0030
:104960002184240104000000070000000100000071
:104970005849D0C06049D0C000000000FFFFFF00D0
:10498000088A280807000000040000000100000059
:104990007849D0C08049D0C000000000FFFFFF0070
:1049A000000000000000C000380067E0381C9C03D5
:1049B0007E000F8001000000000000000E000000DB
:1049C0000E000000010000009849D0C0A049D0C0EE
:1049D0004E6F00596573004261636B004F6E654C0A
:1049E000656467657200697320726561647900535C
:1049F000657474696E67730056657273696F6E00D3
:104A0000312E302E30005175697400005C48D0C0E2
:104A1000DC49D0C0E649D0C0DD41D0C00C4AD0C08E
:104A20000000000000000000850AD0C00000000067
:104A30000000000000000000284AD0C0FFFFFFFF78
:104A40009448D0C0EF49D0C0CD40D0C0404AD0C07B
:104A5000384AD0C000000000F849D0C0004AD0C099
:104A6000513CD0C0584AD0C00000000000000000F7
:104A7000A10AD0C0000000000000000000000000FB
:104A8000704AD0C0FFFFFFFF0449D0C0064AD0C023
:104A9000CD40D0C0884AD0C0804AD0C000000000BD
:104AA000184AD0C0484AD0C0604AD0C0904AD0C04E
:104AB000FDFFFFFFFFFFFFFFB001000000B0A700F8
:104AC0000000B00200000030313233343536373860
:104AD0003961626364656630313233343536373874
:104AE000394142434445465369676E617475726546
:104AF000005369676E696E67205472616E736163FB
:104B000074696F6E2E2E2E00416D6F756E7400529B
:104B10006563697069656E742041646472004665FE
:104B200065203C4F4C543E00E74AD0C0F14AD0C00B
:104B3000ED3FD0C0284BD0C00000000000000000B6
:104B4000084BD0C0A01C0020ED3FD0C0404BD0C0CF
:104B500000000000000000000F4BD0C0C01C00206F
:104B6000ED3FD0C0584BD0C0000000000000000056
:104B70001E4BD0C0001D0020ED3FD0C0704BD0C0F8
:104B80000000000000000000BD18D0C000000000C0
:104B90000000000000000000884BD0C0FFFFFFFFB6
:104BA000BC49D0C09C47D0C0CD40D0C0A04BD0C0E5
:104BB000984BD0C000000000E918D0C000000000F1
:104BC0000000000000000000B84BD0C0FFFFFFFF56
:104BD000CC48D0C0A447D0C0CD40D0C0D04BD0C06E
:104BE000C84BD0C000000000304BD0C0A84BD0C094
:104BF000D84BD0C0FFFFFFFF304BD0C0484BD0C0D8
:104C0000604BD0C0784BD0C0A84BD0C0D84BD0C0E0
:104C1000FFFFFFFF6F00900167006985F1D0000082
:104C20000000424F494C0090009000006A805532CD
:104C3000465F56329000010990006E006D00FFFF44
:104C4000FFFF0000000000000921110121012222C4
:104C50000000000009211101000122220006D0F10C
:104C60000901A1010903150026FF0075089540817F
:104C7000080904150026FF00750895409108C00634
:104C8000A0FF0901A1010903150026FF0075089581
:104C90004081080904150026FF0075089540910819
:104CA000C01703017777772E6C656467657277614B
:104CB0006C6C65742E636F6D050F3900021810055A
:104CC0000038B60834A909A0478BFDA0768815B630
:104CD0006500011E011C100500DF60DDD88945C795
:104CE0004C9CD2659D9E648A9F00000306B20077AB
:104CF00000000000E133D0C0F133D0C00134D0C097
:104D00001134D0C02134D0C03134D0C04134D0C0EF
:104D10005134D0C012034D005300460054003100FE
:104D20003000300077009200000000010500010013
:104D300088000000070000002A004400650076009B
:104D400069006300650049006E0074006500720030
:104D5000660061006300650047005500490044009B
:104D600073000000500000007B003100330064003D
:104D7000360033003400300030002D003200430094
:104D8000390037002D0030003000300034002D0095
:104D900030003000300030002D0034006300360059
:104DA0003500360034003600370036003500370055
:104DB00032007D00000000000A0000000000030631
:104DC000B200080001000000A80008000200020074
:104DD000A0001400030057494E5553420000000044
:104DE0000000000000008400040007002A004400C6
:104DF0006500760069006300650049006E0074007C
:104E000065007200660061006300650047005500A0
:104E1000490044007300000050007B00430045003F
:104E20003800300039003200360034002D003400E4
:104E30004200320034002D003400450038003100BB
:104E40002D0041003800420032002D0035003700AF
:104E50004500440030003100440035003800300087
:104E6000450031007D000000000000008D31D0C001
:104E7000BF31D0C0F730D0C00000000000000000FB
:104E8000E532D0C0FD32D0C00000000000000000BC
:104E900000000000DD35D0C0DD35D0C0DD35D0C02C
:104EA000ED35D0C06D32D0C0BF31D0C0F730D0C0EA
:104EB0000000000000000000A132D0C0B932D0C014
:104EC000000000000000000000000000DD35D0C040
:104ED000DD35D0C0DD35D0C0ED35D0C04933D0C0D0
:104EE0007533D0C07933D0C000000000000000004E
:104EF0007D33D0C09533D0C000000000000000001A
:104F000000000000DD35D0C0DD35D0C0DD35D0C0BB
:104F1000ED35D0C01201100200000040972C151092
:104F2000010201020301040309040E034C006500A1
:104F300064006700650072000E034E0061006E00A1
:104F40006F00200053000A033000300030003100B1
:104F50002800000000010400010000000000000023
:104F6000020157494E555342000000000000000066
:104F7000000000000000000009026000030102C000
:104F8000320904000002030000020921110100019E
:104F900022220007058203400001070502034000AA
:104FA000010904010002030101020921110121018B
:104FB000222200070581034000010705010340008C
:104FC000010904020002FFFFFF02070583034000FE
:104FD00001070503034000010A060002000000402B
:104FE0000100303132333435363738396162636429
:104FF000656600002C0000809301008000000080A6
:10500000000000800000008003000000000080001D
:10501000200000000100000000000000FFFFFF0072
:105020000000000000000000050102000C00040068
:105030000700000000000000FFFFFF00000000006C
:10504000000000004449D0C005027A000C000400B2
:105050000700000000000000FFFFFF00000000004C
:10506000000000006449D0C0071000000C00800060
:105070002000000000000000FFFFFF000000000013
:105080000880000000000000071100001A008000E6
:105090002000000000000000FFFFFF0000000000F3
:1050A00008800000000000000300000000008000F5
:1050B000200000000100000000000000FFFFFF00D2
:1050C0000000000000000000050100000E000700C5
:1050D0000400000000000000FFFFFF0000000000CF
:1050E000000000008449D0C0050278000E000700CF
:1050F0000400000000000000FFFFFF0000000000AF
:10510000000000002449D0C0071100000300800007
:105110002000000000000000FFFFFF000000000072
:105120000A80000000000000071200001300800049
:105130002000000000000000FFFFFF000000000052
:10514000088000000000000007130000230080001A
:105150002000000000000000FFFFFF000000000032
:105160000A800000000000002573202825642F25F8
:1051700064290025730025642F256400252E2A73D9
:10518000000000000300000000008000200000007C
:105190000100000000000000FFFFFF000000000011
:1051A00000000000050102000C00040007000000E0
:1051B00000000000FFFFFF000000000000000000F2
:1051C0004449D0C005027A000C000400070000002A
:1051D00000000000FFFFFF000000000000000000D2
:1051E0006449D0C005103800020010001000000013
:1051F00000000000FFFFFF00000000000A80000028
:1052000000000000071100001C00800020000000CA
:1052100000000000FFFFFF00000000000880000009
:1052200000000000030000000000800020000000DB
:105230000100000000000000FFFFFF000000000070
:1052400000000000050102000C000400070000003F
:1052500000000000FFFFFF00000000000000000051
:105260004449D0C005027A000C0004000700000089
:1052700000000000FFFFFF00000000000000000031
:105280006449D0C0050F1000080010001000000095
:1052900000000000FFFFFF00000000000000000011
:1052A00000000000071029000C0080002000000012
:1052B00000000000FFFFFF000000000008000000E9
:1052C00000000000071129001A00800020000000E3
:1052D00000000000FFFFFF000000000008000000C9
:1052E00000000000CD42D0C0501900200000000096
:1052F00000000000E452D0C0FFFFFFFF00000000EC
:10530000000000000000000000000000000000009D
:10531000000000000000000000000000000000008D
:10532000000000000000000000000000000000007D
:10533000000000000000000000000000000000006D
:04000005C0D0000166
:00000001FF
